:10000000BAC00000A7C40000DCC50000D1C00000D9
:10001000CFC00000CDC00000CBC00000C9C00000B0
:10002000C7C00000C5C00000C3C00000C1C00000C0
:10003000BFC00000BDC00000BBC00000B9C00000D0
:10004000C0C40000B5C00000B3C00000B1C00000D3
:10005000AFC00000ADC00000ABC00000A9C00000F0
:10006000A7C00000A5C00000A3C00000A1C0000000
:100070009FC000009DC000009BC0000099C0000010
:1000800097C0000095C0000093C000000006003E2D
:10009000003E00FE07FE0FFE3FFEFFFEFFFEFFFEDE
:1000A000FFFEFFFEFFFEFFFEFFFEFFFE7FFE7FFE68
:1000B0003FFE1FFE0FFE0FFE07FE01FE01FE00FECB
:1000C000003E003E003E001E000000000000000058
:1000D00003000780078007806780E780E780E78C60
:1000E000E79CE79CE79CE79CE79C7F9C3F9C07FC88
:1000F00007F8078007800780078007800780078050
:100100000000000000000000000007FF000CFF00DE
:100110000CFF000FFF000FFF000FFF000FFF000F8D
:10012000E0401FFC403FC0403FC071FFF071FFF056
:100130007FFFD07FFFC03FFFC00FFF000FFF000316
:10014000FC0003FC0001EC0001840001040001C775
:10015000000000000000000000000000000000009F
:10016000000000000000000000000000000000008F
:1001700000000000000011241FBECFEFD0E1DEBF61
:10018000CDBF13E0A0E0B1E0EAEBFCE000E00BBF84
:1001900002C007900D92A435B107D9F727E0A4E576
:1001A000B3E001C01D92A236B207E1F7DAD483C5ED
:1001B00027CF93B1906293B993E09A95F1F700003D
:1001C00093B19F7E93B993B19F7B93B993B190689C
:1001D00093B98BBB83E08A95F1F7000083B18F7DE3
:1001E00083B9089593B1906293B993E09A95F1F72A
:1001F000000093B19F7E93B993B1906493B993B18A
:100200009F7793B98BBB83E08A95F1F7000083B1A8
:100210008F7D83B9089593B1906293B993E09A95D5
:10022000F1F7000093B19F7E93B993B1906493B9B5
:1002300093B1906893B98BBB83E08A95F1F7000086
:1002400083B18F7D83B9089593B1906293B993E0A0
:100250009A95F1F7000093B1906193B993B19F7BA8
:1002600093B993B1906893B98BBB83E08A95F1F70A
:10027000000083B18F7D83B9089593B1906293B9E3
:1002800093E09A95F1F7000093B1906193B993B11F
:10029000906493B993B19F7793B98BBB83E08A95B0
:1002A000F1F7000083B18F7D83B9089593B1906217
:1002B00093B993E09A95F1F7000093B1906193B9E7
:1002C00093B1906493B993B1906893B98BBB83E079
:1002D0008A95F1F7000083B18F7D83B908951F934C
:1002E000CF93DF9318EBD0E00DC0812F94DF80E433
:1002F00092DFC0E003C080E0D9DFCF5FC034D8F325
:100300001F5FDF5FD83088F3DF91CF911F91089591
:100310008FE381DF80EC7FDF88EB7DDF80E47BCFC4
:10032000089580935C0360936107885474DF809123
:1003300061078A3048F4982F990F890F982F990FE9
:1003400084E4890F36CF089590E00A97982F990F8B
:10035000890F982F990F80E4890F44CF0895CF9388
:10036000DF93D82FC0E026C0809161078A3088F4DF
:100370008D2F90E08097FC01EE0FFF1FEE0FFF1F07
:10038000E80FF91FE050FF4FEC0FF11D80815CDF9B
:1003900010C08D2F90E08097FC01EE0FFF1FEE0F35
:1003A000FF1FE80FF91FE050FF4FEC0FF11D808198
:1003B00064DFCF5FC530C0F2809161078A3018F4E6
:1003C00080E042DF02C080E058DFDF91CF910895E6
:1003D000CF93DF93EA0180935C0360936107A1DF11
:1003E0000DC0809161078A3011F480E4FBDE8991B1
:1003F000B6DF809161078F5F8093610788818111EB
:10040000F0CFDF91CF910895CF93C62F885403DFAB
:10041000C03420F480E48C0FCCDE02C08C2FE2DEEE
:10042000CF910895EF92FF920F931F93CF93803453
:1004300008F054C066230CF451C0282F2695269549
:100440002695982F977071F0913071F0923071F07D
:10045000933071F0943071F0953071F0963071F402
:1004600090E40DC091E00BC092E009C094E007C099
:1004700098E005C090E103C090E201C090E8C62F6B
:10048000022F10E0E62EF12CF801F695FE2FEE2754
:10049000F795E795EF59FC4FEE0DFF1D8081982BE6
:1004A0009083822FB1DFC03468F41695102F002797
:1004B000179507950F591C4FF801EE0DFF1D808110
:1004C000C3DE0CC01695102F0027179507950F59FE
:1004D0001C4FF801EE0DFF1D8081CFDECF911F91E3
:1004E0000F91FF90EF90089590E00FC020E8929F49
:1004F000F0011124EF59FC4FE80FF11D10828F5FBE
:1005000001C080E0882394F79F5F9830D0F308956E
:10051000AF92BF92DF92EF92FF920F931F93CF9310
:10052000DF93F82EC62FD42EE22E621709F448C0AE
:10053000621718F5C62FD0E08E0119C0F801EC1B28
:10054000FD0B2F2D30E04D2D50E0421B530BE49F4F
:10055000C001E59F900DF49F900D11246C1B7D0B45
:1005600074D3862F602F8F0D5DDF0F5F1F4F6E2DB1
:1005700070E06017710714F76FC0C62FD0E08E01CE
:1005800019C0F801EC1BFD0B2F2D30E04D2D50E074
:10059000421B530BE49FC001E59F900DF49F900D0B
:1005A00011246C1B7D0B51D3862F602F8F0D3ADFEA
:1005B000015011096E2D70E00617170714F74CC093
:1005C000841709F448C0841718F5A82EB12C8501AA
:1005D00019C0F801EA19FB092C2F30E04E2D50E02C
:1005E000421B530BE49FC001E59F900DF49F900DBB
:1005F00011246A197B0929D3620F731F802F12DF20
:100600000F5F1F4F6D2D70E06017710714F724C046
:10061000A82EB12C850119C0F801EA19FB092C2F6D
:1006200030E04E2D50E0421B530BE49FC001E59F8C
:10063000900DF49F900D11246A197B0906D3620F67
:10064000731F802FEFDE015011096D2D70E006172A
:10065000170714F701C0E6DEDF91CF911F910F91CC
:10066000FF90EF90DF90BF90AF9008959DEC899F31
:10067000912D1124969596959695990F292F220FD5
:10068000220F920F891B982F31F4611104C080E270
:1006900066DE80E0089580E3890F61DE81E00895E1
:1006A000EF92FF920F931F93CF93DF93AC019C01C6
:1006B000329522952F7023273F702327A7E4B3E0BC
:1006C000D7D2EC01D695C795D695C795D695C7953F
:1006D00020E137E2C29FC001C39F900DD29F900DD1
:1006E0001124EA01C81BD90B7E01F694E794F69415
:1006F000E794F694E7949701A5ECB0E2B9D28C01A7
:10070000129502950F7001271F70012760E0802F5E
:10071000ADDF482F28EE33E0029FC001039F900D0C
:10072000129F900D1124C81BD90B7E01F694E794FB
:10073000F694E7949701ABE7B4E19AD28C01169551
:100740000795642F802F92DF482F24E6209FC00159
:10075000219F900D1124C81BD90B9E01ADECBCEC60
:1007600087D28C01169507951695079516950795CE
:10077000642F802F7BDFC801880F991F000F111F86
:10078000000F111F000F111F080F191FCE01801B32
:10079000910B805DE4DDDF91CF911F910F91FF9070
:1007A000EF90089521E030E0062E02C0220F331FA3
:1007B0000A94E2F790E08223932302C095958795EF
:1007C0006A95E2F70895CF93DF93803408F058C01C
:1007D00066230CF455C0D82FD695D695D69587703C
:1007E00071F0813071F0823071F0833071F08430BB
:1007F00071F0853071F0863071F480E40DC081E0D5
:100800000BC082E009C084E007C088E005C080E139
:1008100003C080E201C080E8452B69F4809590E830
:10082000D99FF0011124EF59FC4FE60FF11D908183
:10083000892380830BC090E8D99FF0011124EF59E0
:10084000FC4FE60FF11D9081892B8083C62F8D2FE1
:10085000DBDDC03458F480E8D89FF0011124EF5953
:10086000FC4FEC0FF11D8081EFDC0AC090E8D99FAE
:10087000F0011124EF59FC4FEC0FF11D8081FDDCDC
:10088000DF91CF9108959F92AF92BF92CF92DF9266
:10089000EF92FF920F931F93CF93DF937C01A62ECD
:1008A000B42E922EC0E0D0E0C12C1FC0209729F4B6
:1008B000C7010196F701D4907C0167E070E06C1BE2
:1008C0007D0B8D2D6FDFAC01612F6B0D8C2D8A0D93
:1008D0007ADF2196C830D10511F4C0E0D0E01F5F67
:1008E00001C010E0101710F3C394C914D0F3DF91C6
:1008F000CF911F910F91FF90EF90DF90CF90BF901D
:10090000AF909F90089587E083BF12BE81E087BFBC
:1009100008951BBA8FEF8ABB88BB87BB15BA90EFCF
:1009200094BB12BA11BA13B882B910926200109235
:100930006100089583E089BF8AE080936A008FB7E1
:1009400080688FBF0895F894E4DFE2DCDCDFF2DF3B
:10095000789408951F920F920FB60F9211248F93DF
:100960009F9380915803813011F0843049F48BE4D7
:100970009DE10197F1F700C0000083E080935803E8
:100980009F918F910F900FBE0F901F9018954BED78
:1009900052E060E080E01CDD8091540390915503AB
:1009A0007FDE40E253E06AE080E012DD8091560392
:1009B0009091570375DE41EE52E060E081E008CD92
:1009C00008951F920F920FB60F9211240BB60F923B
:1009D0002F933F934F935F936F937F938F939F9347
:1009E000AF93BF93EF93FF9380915803813011F041
:1009F000843031F580915A038F5F80935A038D3292
:100A0000F9F4809154039091550301969093550306
:100A100080935403809156039091570302969093CC
:100A2000570380935603B3DF10925A038091540307
:100A300090915503843F914019F484E080935803CA
:100A4000FF91EF91BF91AF919F918F917F916F91A6
:100A50005F914F913F912F910F900BBE0F900FBE62
:100A60000F901F9018953BDC80915803823081F4E1
:100A700046EF52E061E081E0ABDC45E053E064E04A
:100A800082E0A6DC41EE52E060E083E0A1DC0AC037
:100A90004EE053E064E082E09BDC41EE52E060E037
:100AA00083E096DC4BE153E062E084E091DC8091EE
:100AB000560390915703F4DD47E253E064E087E08A
:100AC00087DC1092580308950F9342E8481B00E119
:100AD0002BE168E280ED90E0D6DE0F9108950F9350
:100AE00066E2681B08E12AE140E086E091E0CBDEA7
:100AF0000F910895F4DB45E353E060E081E068DCAA
:100B000041EE52E060E082E063DC49E453E06AE0F9
:100B100083E05EDC2BE741E26EE381E2F9DC80E01A
:100B2000DEDF86E4D1DF2CE84CE360E08CE3F0CC40
:100B3000089510925A031092550310925403109284
:100B4000570310925603CBDBCFDC21DF80E0C7DFF9
:100B50002CE84CE360E08CE3DBDC81E0809358031D
:100B60000895F1DEC7DF8799FECFE3DF8091580358
:100B70008130E1F38430D1F376DFF5CF0F931F930B
:100B8000CF9300E120E249E160E28CE890E07BDE77
:100B900000E010E0C8E20EC02C2F46E46C2F8EE17E
:100BA000B7DCCF5F83EF9EE70197F1F700C000004D
:100BB0000F5F1F4F003511057CF3CF911F910F91EF
:100BC00008951F920F920FB60F9211240BB60F9239
:100BD0002F933F934F935F936F937F938F939F9345
:100BE000AF93BF93EF93FF9380915803813011F03F
:100BF0008430C1F480915603909157038436910557
:100C000088F0845691099093570380935603BFDE72
:100C1000B5DF8BE49DE10197F1F700C0000082E0B1
:100C200080935803FF91EF91BF91AF919F918F9166
:100C30007F916F915F914F913F912F910F900BBEDC
:100C40000F900FBE0F901F90189597FB072E16F46C
:100C5000009406D077FD08D01AD007FC05D03EF4EA
:100C6000909581959F4F0895709561957F4F089558
:100C7000A29FB001B39FC001A39F700D811D1124DD
:100C8000911DB29F700D811D1124911D0895AA1B05
:100C9000BB1B51E107C0AA1FBB1FA617B70710F067
:100CA000A61BB70B881F991F5A95A9F78095909599
:0A0CB000BC01CD010895F894FFCFB8
:100CBA00000000000000004F0000000700070014B9
:100CCA007F147F14242A7F2A122313086462364968
:100CDA005522500005030000001C22410000412259
:100CEA001C0014083E081408083E0808005030008A
:100CFA0000080808080800606000002010080402C4
:100D0A003E5149453E00427F4000426151494621D9
:100D1A0041454B311814127F1027454545393C4A45
:100D2A004949300171090503364949493606494995
:100D3A00291E0036360000005636000008142241EB
:100D4A000014141414140041221408020151090653
:100D5A00324979413E7E1111117E7F494949363E19
:100D6A00414141227F4141221C7F494949417F0932
:100D7A000909013E4149497A7F0808087F00417FF5
:100D8A0041002040413F017F081422417F404040FA
:100D9A00407F020C027F7F0408107F3E4141413EA2
:100DAA007F090909063E4151215E7F091929462614
:100DBA004949493201017F01013F4040403F1F201C
:100DCA0040201F3F4038403F6314081463070870EF
:100DDA0008076151494543007F4141000204081058
:100DEA00200041417F00040201020440404040408B
:100DFA00000102040020545454787F48444438388F
:100E0A0044444420384444487F3854545418087E93
:100E1A000901020C5252523E7F0804047800047DF4
:100E2A0000002040443D007F1028440000417F40DC
:100E3A00007C0418047C7C08040478384444443850
:100E4A007C14141408081414187C7C080404084838
:100E5A0054545420043F4440203C4040207C1C20F1
:100E6A0040201C3C4030403C44281028440C505040
:100E7A00503C4464544C440008364100000077005A
:100E8A00000041360800080408100854696D653AE4
:100E9A00003D3D3D3D3D3D3D3D3D3D3D3D3D3D3DB5
:100EAA003D3D3D3D3D00436F6E67726174756C61F7
:100EBA0074696F6E00596F752057696E2100596FFA
:100ECA0075204C6F6F73652E2E2E00596F75722028
:100EDA00506F696E743A004E65772047616D653AC6
:100EEA00205044370048656C6C6F2C205472617630
:100EFA006C65722044696E6F00507265737320507E
:040F0A004437000068
:00000001FF
