:10000000BAC00000F0C4000026C60000D1C0000045
:10001000CFC00000CDC00000CBC00000C9C00000B0
:10002000C7C00000C5C00000C3C00000C1C00000C0
:10003000BFC00000BDC00000BBC00000B9C00000D0
:1000400009C50000B5C00000B3C00000B1C0000089
:10005000AFC00000ADC00000ABC00000A9C00000F0
:10006000A7C00000A5C00000A3C00000A1C0000000
:100070009FC000009DC000009BC0000099C0000010
:1000800097C0000095C0000093C000000006003E2D
:10009000003E00FE07FE0FFE3FFEFFFEFFFEFFFEDE
:1000A000FFFEFFFEFFFEFFFEFFFEFFFE7FFE7FFE68
:1000B0003FFE1FFE0FFE0FFE07FE01FE01FE00FECB
:1000C000003E003E003E001E000000000000000058
:1000D00003000780078007806780E780E780E78C60
:1000E000E79CE79CE79CE79CE79C7F9C3F9C07FC88
:1000F00007F8078007800780078007800780078050
:100100000000000000000000000007FF000CFF00DE
:100110000CFF000FFF000FFF000FFF000FFF000F8D
:10012000E0401FFC403FC0403FC071FFF071FFF056
:100130007FFFD07FFFC03FFFC00FFF000FFF000316
:10014000FC0003FC0001EC0001840001040001C775
:10015000000000000000000000000000000000009F
:10016000000000000000000000000000000000008F
:1001700000000000000011241FBECFEFD0E1DEBF61
:10018000CDBF1BE0A0E0B1E0ECE5FDE000E00BBF7F
:1001900002C007900D92AA34B107D9F72FE0AAE464
:1001A000BBE001C01D92AA35B207E1F722D5D4C544
:1001B00027CF93B1906293B993E09A95F1F700003D
:1001C00093B19F7E93B993B19F7B93B993B190689C
:1001D00093B98BBB83E08A95F1F7000083B18F7DE3
:1001E00083B9089593B1906293B993E09A95F1F72A
:1001F000000093B19F7E93B993B1906493B993B18A
:100200009F7793B98BBB83E08A95F1F7000083B1A8
:100210008F7D83B9089593B1906293B993E09A95D5
:10022000F1F7000093B19F7E93B993B1906493B9B5
:1002300093B1906893B98BBB83E08A95F1F7000086
:1002400083B18F7D83B9089593B1906293B993E0A0
:100250009A95F1F7000093B1906193B993B19F7BA8
:1002600093B993B1906893B98BBB83E08A95F1F70A
:10027000000083B18F7D83B9089593B1906293B9E3
:1002800093E09A95F1F7000093B1906193B993B11F
:10029000906493B993B19F7793B98BBB83E08A95B0
:1002A000F1F7000083B18F7D83B9089593B1906217
:1002B00093B993E09A95F1F7000093B1906193B9E7
:1002C00093B1906493B993B1906893B98BBB83E079
:1002D0008A95F1F7000083B18F7D83B908951F934C
:1002E000CF93DF9318EBD0E00DC0812F94DF80E433
:1002F00092DFC0E003C080E0D9DFCF5FC034D8F325
:100300001F5FDF5FD83088F3DF91CF911F91089591
:100310008FE381DF80EC7FDF88EB7DDF80E47BCFC4
:1003200008958093540B6093590F885474DF809123
:10033000590F8A3048F4982F990F890F982F990FE9
:1003400084E4890F36CF089590E00A97982F990F8B
:10035000890F982F990F80E4890F44CF0895CF9388
:10036000DF93D82FC0E026C08091590F8A3088F4DF
:100370008D2F90E08097FC01EE0FFF1FEE0FFF1F07
:10038000E80FF91FEA50F74FEC0FF11D80815CDF99
:1003900010C08D2F90E08097FC01EE0FFF1FEE0F35
:1003A000FF1FE80FF91FEA50F74FEC0FF11D808196
:1003B00064DFCF5FC530C0F28091590F8A3018F4E6
:1003C00080E042DF02C080E058DFDF91CF910895E6
:1003D000CF93DF93EA018093540B6093590FA1DF11
:1003E0000DC08091590F8A3011F480E4FBDE8991B1
:1003F000B6DF8091590F8F5F8093590F88818111EB
:10040000F0CFDF91CF910895CF93C62F885403DFAB
:10041000C03420F480E48C0FCCDE02C08C2FE2DEEE
:10042000CF910895EF92FF920F931F93CF93803453
:1004300008F054C066230CF451C0282F2695269549
:100440002695982F977071F0913071F0923071F07D
:10045000933071F0943071F0953071F0963071F402
:1004600090E40DC091E00BC092E009C094E007C099
:1004700098E005C090E103C090E201C090E8C62F6B
:10048000022F10E0E62EF12CF801F695FE2FEE2754
:10049000F795E795E75AF44FEE0DFF1D8081982BF5
:1004A0009083822FB1DFC03468F41695102F002797
:1004B00017950795075A144FF801EE0DFF1D80811F
:1004C000C3DE0CC01695102F002717950795075A05
:1004D000144FF801EE0DFF1D8081CFDECF911F91EB
:1004E0000F91FF90EF90089590E00FC020E8929F49
:1004F000F0011124E75AF44FE80FF11D10828F5FCD
:1005000001C080E0882394F79F5F9830D0F308956E
:10051000AF92BF92DF92EF92FF920F931F93CF9310
:10052000DF93F82EC62FD42EE22E621709F448C0AE
:10053000621718F5C62FD0E08E0119C0F801EC1B28
:10054000FD0B2F2D30E04D2D50E0421B530BE49F4F
:10055000C001E59F900DF49F900D11246C1B7D0B45
:10056000BED3862F602F8F0D5DDF0F5F1F4F6E2D67
:1005700070E06017710714F76FC0C62FD0E08E01CE
:1005800019C0F801EC1BFD0B2F2D30E04D2D50E074
:10059000421B530BE49FC001E59F900DF49F900D0B
:1005A00011246C1B7D0B9BD3862F602F8F0D3ADFA0
:1005B000015011096E2D70E00617170714F74CC093
:1005C000841709F448C0841718F5A82EB12C8501AA
:1005D00019C0F801EA19FB092C2F30E04E2D50E02C
:1005E000421B530BE49FC001E59F900DF49F900DBB
:1005F00011246A197B0973D3620F731F802F12DFD6
:100600000F5F1F4F6D2D70E06017710714F724C046
:10061000A82EB12C850119C0F801EA19FB092C2F6D
:1006200030E04E2D50E0421B530BE49FC001E59F8C
:10063000900DF49F900D11246A197B0950D3620F1D
:10064000731F802FEFDE015011096D2D70E006172A
:10065000170714F701C0E6DEDF91CF911F910F91CC
:10066000FF90EF90DF90BF90AF9008959DEC899F31
:10067000912D1124969596959695990F292F220FD5
:10068000220F920F891B982F31F4611104C080E270
:1006900066DE80E0089580E3890F61DE81E00895E1
:1006A000EF92FF920F931F93CF93DF93AC019C01C6
:1006B000329522952F7023273F702327A7E4B3E0BC
:1006C00021D3EC01D695C795D695C795D695C795F4
:1006D00020E137E2C29FC001C39F900DD29F900DD1
:1006E0001124EA01C81BD90B7E01F694E794F69415
:1006F000E794F694E7949701A5ECB0E203D38C015C
:10070000129502950F7001271F70012760E0802F5E
:10071000ADDF482F28EE33E0029FC001039F900D0C
:10072000129F900D1124C81BD90B7E01F694E794FB
:10073000F694E7949701ABE7B4E1E4D28C01169507
:100740000795642F802F92DF482F24E6209FC00159
:10075000219F900D1124C81BD90B9E01ADECBCEC60
:10076000D1D28C0116950795169507951695079584
:10077000642F802F7BDFC801880F991F000F111F86
:10078000000F111F000F111F080F191FCE01801B32
:10079000910B805DE4DDDF91CF911F910F91FF9070
:1007A000EF90089521E030E0062E02C0220F331FA3
:1007B0000A94E2F790E08223932302C095958795EF
:1007C0006A95E2F70895CF93DF93803408F058C01C
:1007D00066230CF455C0D82FD695D695D69587703C
:1007E00071F0813071F0823071F0833071F08430BB
:1007F00071F0853071F0863071F480E40DC081E0D5
:100800000BC082E009C084E007C088E005C080E139
:1008100003C080E201C080E8452B69F4809590E830
:10082000D99FF0011124E75AF44FE60FF11D908192
:10083000892380830BC090E8D99FF0011124E75AE7
:10084000F44FE60FF11D9081892B8083C62F8D2FE9
:10085000DBDDC03458F480E8D89FF0011124E75A5A
:10086000F44FEC0FF11D8081EFDC0AC090E8D99FB6
:10087000F0011124E75AF44FEC0FF11D8081FDDCEB
:10088000DF91CF9108959F92AF92BF92CF92DF9266
:10089000EF92FF920F931F93CF93DF937C01A62ECD
:1008A000B42E922EC0E0D0E0C12C1FC0209729F4B6
:1008B000C7010196F701D4907C0167E070E06C1BE2
:1008C0007D0B8D2D6FDFAC01612F6B0D8C2D8A0D93
:1008D0007ADF2196C830D10511F4C0E0D0E01F5F67
:1008E00001C010E0101710F3C394C914D0F3DF91C6
:1008F000CF911F910F91FF90EF90DF90CF90BF901D
:10090000AF909F90089580914A0B90914B0B009768
:1009100051F42FEF80E792E0215080409040E1F7C2
:1009200000C000000895019751F42FEB84ED91E091
:10093000215080409040E1F700C0000008952FE76B
:1009400088E391E0215080409040E1F700C0000032
:10095000089587E083BF12BE81E087BF08951BBA68
:100960008FEF8ABB88BB87BB15BA90EF94BB12BAD6
:1009700011BA13B882B91092620010926100089502
:1009800083E089BF8AE080936A008FB780688FBF59
:100990000895F894E4DFBCDCDCDFF2DF789448E211
:1009A00052E064E070E08EEC96E0CFD140E152E09E
:1009B00061E070E08EEB94E0C8D140E152E062E08B
:1009C00070E08EEA92E0C1D14AE451E063E070E069
:1009D00084E691E0BAD144E650E065E070E080E062
:1009E00091E0B3C108951F920F920FB60F92112498
:1009F0008F939F938091500B813011F0843049F494
:100A00008BE49DE10197F1F700C0000083E0809343
:100A1000500B9F918F910F900FBE0F901F901895C4
:100A200041ED5AE060E080E0D3DC80914C0B909186
:100A30004D0B36DE46E15BE06AE080E0C9DC809188
:100A40004E0B90914F0B2CDE47ED5AE060E081E0B9
:100A5000BFCC08951F920F920FB60F9211240BB6C0
:100A60000F922F933F934F935F936F937F938F9347
:100A70009F93AF93BF93EF93FF938091500B81307F
:100A800011F0843031F58091520B8F5F8093520BBF
:100A90008D32F9F480914C0B90914D0B019690930F
:100AA0004D0B80934C0B80914E0B90914F0B029607
:100AB00090934F0B80934E0BB3DF1092520B8091AB
:100AC0004C0B90914D0B843F914019F484E080933E
:100AD000500BFF91EF91BF91AF919F918F917F91BB
:100AE0006F915F914F913F912F910F900BBE0F909F
:100AF0000FBE0F901F901895F2DB8091500B823043
:100B000081F44CEE5AE061E081E062DC4BEF5AE0A8
:100B100064E082E05DDC47ED5AE060E083E058DCB1
:100B20000AC044E05BE064E082E052DC47ED5AE05A
:100B300060E083E04DDC41E15BE062E084E048DCC2
:100B400080914E0B90914F0BABDD4DE15BE064E08B
:100B500087E03EDC1092500B08950F9300E12BE1EB
:100B6000482F68E280ED90E08EDE0F9108950F939C
:100B700066E2681B08E12AE140E086E091E083DE5E
:100B80000F910895ACDB4BE25BE060E081E020DC9C
:100B900047ED5AE060E082E01BDC4FE35BE06AE097
:100BA00083E016DC2BE741E26EE381E2B1DC80E01A
:100BB000DEDF86E4D2DF2CE84CE360E08CE3A8CCF7
:100BC00008951092520B10924D0B10924C0B1092F4
:100BD0004F0B10924E0B83DB87DC22DF80E0C7DFF8
:100BE0002CE84CE360E08CE393DC81E08093500BD5
:100BF0000895CFDEC7DF8799FECFE3DF01C083DE34
:100C00008091500B8130D9F38430C9F375DFF3CF75
:100C10000F931F93CF9300E120E249E160E28CE85B
:100C200090E031DE00E010E0C8E20EC02C2F46E478
:100C30006C2F8EE16DDCCF5F83EF9EE70197F1F7BC
:100C400000C000000F5F1F4F003511057CF3CF91EE
:100C50001F910F9108951F920F920FB60F921124BA
:100C60000BB60F922F933F934F935F936F937F93A6
:100C70008F939F93AF93BF93EF93FF938091500B0C
:100C8000813011F08430C1F480914E0B90914F0B64
:100C90008436910588F08456910990934F0B809388
:100CA0004E0BBEDEB5DF8BE49DE10197F1F700C08E
:100CB000000082E08093500BFF91EF91BF91AF91C4
:100CC0009F918F917F916F915F914F913F912F9164
:100CD0000F900BBE0F900FBE0F901F90189597FBB3
:100CE000072E16F4009406D077FD08D01AD007FC22
:100CF00005D03EF4909581959F4F0895709561952C
:100D00007F4F0895A29FB001B39FC001A39F700DB4
:100D1000811D1124911DB29F700D811D1124911D03
:100D20000895AA1BBB1B51E107C0AA1FBB1FA61732
:100D3000B70710F0A61BB70B881F991F5A95A9F784
:100D400080959095BC01CD010895DC0101C06D93A3
:0C0D500041505040E0F70895F894FFCFA8
:100D5C000500000000000000000000000000000082
:100D6C000000000000000000000000000000000077
:100D7C000000000000000000000000000000000067
:100D8C000000000000000000000000000000000057
:100D9C000000000000000000000000000000000047
:100DAC000000000000000000000000000000000037
:100DBC000000000003000000000000000000000024
:100DCC000000000000000000000000000000000017
:100DDC000000000000000000000000000000000007
:100DEC0000000000000000000000000000000000F7
:100DFC0000000000000000000000000000000000E7
:100E0C0000000000000000000000000000000000D6
:100E1C0000000000000000000000000000000000C6
:100E2C0000000000000000000000000000000000B6
:100E3C0000000000000000000000000000000000A6
:100E4C000000000000000000000000000000000096
:100E5C000000000000000000000000000000000086
:100E6C000000000000000000000000000000000076
:100E7C000000000000000000000000000000000066
:100E8C000000000000000000000000000000000056
:100E9C000000000000000000000000000000000046
:100EAC000000000000000000000000000000000036
:100EBC000000000000000000000000000000000026
:100ECC000000000000000000000000000000000016
:100EDC000000000000000000000000000000000006
:100EEC0000000000000000000000000000000000F6
:100EFC0000000000000000000000000000000200E4
:100F0C0000000000000000000000000000000000D5
:100F1C0000000000000000000000000000000000C5
:100F2C0000000000000000000000000000000000B5
:100F3C0000000000000000000000000000000000A5
:100F4C000000000000000000000000000000000095
:100F5C000000000000000000000000000000000085
:100F6C000000000000000000000000000000000075
:100F7C000000000000000000000000000000000065
:100F8C000000000000000000000000000000000055
:100F9C000000000000000000000000000000000045
:100FAC000000000000000000000000000000000035
:100FBC000000000000000000000000000000000025
:100FCC000000000000000000000000000000000015
:100FDC000000000000000000000000000000000005
:100FEC0000000000000000000000000000000000F5
:100FFC0000000000000000000000000000000000E5
:10100C0000000000000000000000000000000000D4
:10101C0000000000000000000000000000000000C4
:10102C0000000000000000000000000000000000B4
:10103C0000000000000000000000000000000000A4
:10104C000000000000000000000000000000000094
:10105C000000000000000000000000000000000084
:10106C000000000000000000000000000000000074
:10107C000000000000000000000000000000000064
:10108C000000000000000000000000000000000054
:10109C000000000000000000000000000000000044
:1010AC000000000000000000000000000000000034
:1010BC000000000000000000000000000000000024
:1010CC000000000000000000000000000000000014
:1010DC000000000000000000000000000000000004
:1010EC0000000000000000000000000000000000F4
:1010FC0000000000000000000000000000000000E4
:10110C0000000000000000000000000000000100D2
:10111C0000000000000000000000000000000000C3
:10112C0000000000000000000000000000000000B3
:10113C0000000000000000000000000000000000A3
:10114C000000000000000000000000000000000093
:10115C000000000000000000000000000000000083
:10116C000000000000000000000000000000000073
:10117C000000000000000000000000000000000063
:10118C000000000000000000000000000000000053
:10119C000000000000000000000000000000000043
:1011AC000000000000000000000000000000000033
:1011BC000000000000000000000000000000000023
:1011CC000000000000000000000000000000000013
:1011DC000000000000000000000000000000000003
:1011EC0000000000000000000000000000000000F3
:1011FC0000000000000000000000000000000000E3
:10120C0000000000000000000000000000000000D2
:10121C0000000000000000000000000000000000C2
:10122C0000000000000000000000000000000000B2
:10123C0000000000000000000000000000000000A2
:10124C000000000000000000000000000000000092
:10125C000000000000000000000000000000000082
:10126C000000000000000000000000000000000072
:10127C000000000000000000000000000000000062
:10128C000000000000000000000000000000000052
:10129C000000000000000000000000000000000042
:1012AC000000000000000000000000000000000032
:1012BC000000000000000000000000000000000022
:1012CC000000000000000000000000000000000012
:1012DC000000000000000000000000000000000002
:1012EC0000000000000000000000000000000000F2
:1012FC0000000000000000000000000000000000E2
:10130C0000000000000000000000000000000000D1
:10131C0000000000000000000000000000000400BD
:10132C0000000000000000000000000000000000B1
:10133C0000000000000000000000000000000000A1
:10134C000000000000000000000000000000000091
:10135C000000000000000000000000000000000081
:10154C00000000000000000000000000004F000040
:10155C000007000700147F147F14242A7F2A12230B
:10156C001308646236495522500005030000001C24
:10157C002241000041221C0014083E081408083EB9
:10158C0008080050300000080808080800606000D7
:10159C000020100804023E5149453E00427F4000A5
:1015AC0042615149462141454B311814127F102795
:1015BC00454545393C4A49493001710905033649CD
:1015CC00494936064949291E003636000000563670
:1015DC0000000814224100141414141400412214A5
:1015EC00080201510906324979413E7E1111117EE2
:1015FC007F494949363E414141227F4141221C7F6E
:10160C00494949417F090909013E4149497A7F0805
:10161C0008087F00417F41002040413F017F0814B2
:10162C0022417F404040407F020C027F7F04081023
:10163C007F3E4141413E7F090909063E4151215EF1
:10164C007F09192946264949493201017F01013F89
:10165C004040403F1F2040201F3F4038403F631414
:10166C0008146307087008076151494543007F411E
:10167C00410002040810200041417F0004020102D5
:10168C00044040404040000102040020545454786F
:10169C007F484444383844444420384444487F38D4
:1016AC0054545418087E0901020C5252523E7F08C1
:1016BC0004047800047D00002040443D007F102885
:1016CC00440000417F40007C0418047C7C08040426
:1016DC007838444444387C14141408081414187CC6
:1016EC007C080404084854545420043F4440203CD3
:1016FC004040207C1C2040201C3C4030403C442876
:10170C001028440C5050503C4464544C440008364F
:10171C004100000077000000413608000804081062
:10172C000854696D653A003D3D3D3D3D3D3D3D3DB7
:10173C003D3D3D3D3D3D3D3D3D3D3D00436F6E6777
:10174C00726174756C6174696F6E00596F75205796
:10175C00696E2100596F75204C6F6F73652E2E2E9C
:10176C0000596F757220506F696E743A004E657730
:10177C002047616D653A205044370048656C6C6FAA
:10178C002C20547261766C65722044696E6F005027
:0A179C00726573732050443700009B
:00000001FF
