S0120000456E6450726F6A6563742E7372656324
S113000045C100000C9498080C94E50863C60000F0
S11300105BC1000059C1000057C1000055C1000078
S113002053C1000051C100004FC100004DC1000088
S11300304BC1000049C1000047C1000045C1000098
S113004078C6000041C100003FC100003DC100006E
S11300503BC1000039C1000037C1000035C10000B8
S113006033C1000031C100002FC100002DC10000C8
S11300702BC1000029C1000027C1000025C10000D8
S113008023C1000021C100001FC1000000000000C6
S1130090000000000000000000000000000000005C
S11300A0000000000000000000000000000000004C
S11300B00FE00030003FF001FE003FF801FF0007B1
S11300C0FC03FF0003FFC7FF0003C3FFFE0003019F
S11300D0FFFC000301FFFE006F9CFC7C077FFCF02B
S11300E070077FF4E0006FFFF9E000FFF0FFC0004D
S11300F0FF107FC00000001FC00000003FC00000D0
S1130100003FC00000003FC00000000000000000ED
S113011000000000000000000000000000000000DB
S113012000000000000000000000000000000000CB
S1130130000006003E003E00FE07FE0FFE3FFEFFED
S1130140FEFFFEFFFEFFFEFFFEFFFEFFFEFFFEFFC3
S1130150FE7FFE7FFE3FFE1FFE0FFE0FFE07FE0129
S1130160FE01FE00FE003E003E003E001E000000B8
S1130170000000000003000780078007806780E715
S113018080E780E78CE79CE79CE79CE79CE79C7F03
S11301909C3F9C07FC07F8078007800780078007BF
S11301A080078007800000000000000000000000BD
S11301B000000000000400000400000700000780A5
S11301C00007800007E00007C00007E00387F00F86
S11301D0C7F81FE7FE1FE7FE7FE7FFFFFFFFFFFFF4
S11301E0FF007FFF001FFF000BFF0003FF00000064
S11301F000000000000000000000000000000000FB
S113020000000000000000000000000000000000EA
S113021000000000000000000000000000000007D3
S1130220FF000CFF000CFF000FFF000FFF000FFF8B
S1130230000FFF000FE0401FFC403FC0403FC07173
S1130240FFF071FFF07FFFD07FFFC03FFFC00FFFC3
S1130250000FFF0003FC0003FC0001EC000184001C
S113026001040001C70000000000000000000000BD
S1130270000000000000000000000000000000007A
S113028000000000000000000000000011241FBE58
S1130290CFEFD0E1DEBFCDBF13E0A0E0B1E0EEE1EF
S11302A0F7E100E00BBF02C007900D92AA35B10739
S11302B0D9F728E0AAE5B3E001C01D92A138B2073E
S11302C0E1F7DDD60C948D0B9BCE93B1906293B97C
S11302D093E09A95F1F7000093B19F7E93B993B19F
S11302E09F7B93B993B1906893B98BBB83E08A9554
S11302F0F1F7000083B18F7D83B9089593B19062C3
S113030093B993E09A95F1F7000093B19F7E93B966
S113031093B1906493B993B19F7793B98BBB83E006
S11303208A95F1F7000083B18F7D83B9089593B165
S1130330906293B993E09A95F1F7000093B19F7E90
S113034093B993B1906493B993B1906893B98BBB0B
S113035083E08A95F1F7000083B18F7D83B9089516
S113036093B1906293B993E09A95F1F7000093B139
S1130370906193B993B19F7B93B993B1906893B90A
S11303808BBB83E08A95F1F7000083B18F7D83B93D
S1130390089593B1906293B993E09A95F1F70000B0
S11303A093B1906193B993B1906493B993B19F77EA
S11303B093B98BBB83E08A95F1F7000083B18F7DFD
S11303C083B9089593B1906293B993E09A95F1F744
S11303D0000093B1906193B993B1906493B993B1D0
S11303E0906893B98BBB83E08A95F1F7000083B1E1
S11303F08F7D83B908951F93CF93DF9318EBD0E0DB
S11304000DC0812F94DF80E492DFC0E003C080E060
S1130410D9DFCF5FC034D8F31F5FDF5FD83088F3F4
S1130420DF91CF911F9108958FE381DF80EC7FDF0F
S113043088EB7DDF80E47BCF089580937B04609319
S11304408008885474DF809180088A3048F4982F9B
S1130450990F890F982F990F84E4890F36CF089547
S113046090E00A97982F990F890F982F990F80E49D
S1130470890F44CF0895CF93DF93D82FC0E026C0CF
S1130480809180088A3088F48D2F90E08097FC0159
S1130490EE0FFF1FEE0FFF1FE80FF91FE95FFE4F7E
S11304A0EC0FF11D80815CDF10C08D2F90E08097F0
S11304B0FC01EE0FFF1FEE0FFF1FE80FF91FE95FAE
S11304C0FE4FEC0FF11D808164DFCF5FC530C0F2B9
S11304D0809180088A3018F480E042DF02C080E016
S11304E058DFDF91CF910895CF93DF93EA01809392
S11304F07B0460938008A1DF0DC0809180088A305E
S113050011F480E4FBDE8991B6DF809180088F5F6F
S11305108093800888818111F0CFDF91CF91089575
S1130520CF93C62F885403DFC03420F480E48C0FAB
S1130530CCDE02C08C2FE2DECF910895EF92FF92C1
S11305400F931F93CF93803408F054C066230CF4A8
S113055051C0282F269526952695982F977071F0CF
S1130560913071F0923071F0933071F0943071F0F9
S1130570953071F0963071F490E40DC091E00BC0A9
S113058092E009C094E007C098E005C090E103C080
S113059090E201C090E8C62F022F10E0E62EF12C65
S11305A0F801F695FE2FEE27F795E795E058FB4FF7
S11305B0EE0DFF1D8081982B9083822FB1DFC03414
S11305C068F41695102F00271795079500581B4FB0
S11305D0F801EE0DFF1D8081C3DE0CC01695102FAF
S11305E000271795079500581B4FF801EE0DFF1DC6
S11305F08081CFDECF911F910F91FF90EF900895EE
S113060090E00FC020E8929FF0011124E058FB4FC6
S1130610E80FF11D10828F5F01C080E0882394F7FA
S11306209F5F9830D0F30895AF92BF92DF92EF921C
S1130630FF920F931F93CF93DF93F82EC62FD42EE0
S1130640E22E621709F448C0621718F5C62FD0E0ED
S11306508E0119C0F801EC1BFD0B2F2D30E04D2D40
S113066050E0421B530BE49FC001E59F900DF49FA3
S1130670900D11246C1B7D0B77D7862F602F8F0D67
S11306805DDF0F5F1F4F6E2D70E06017710714F769
S11306906FC0C62FD0E08E0119C0F801EC1BFD0B12
S11306A02F2D30E04D2D50E0421B530BE49FC00131
S11306B0E59F900DF49F900D11246C1B7D0B54D776
S11306C0862F602F8F0D3ADF015011096E2D70E0D7
S11306D00617170714F74CC0841709F448C0841789
S11306E018F5A82EB12C850119C0F801EA19FB09E7
S11306F02C2F30E04E2D50E0421B530BE49FC001E1
S1130700E59F900DF49F900D11246A197B092CD755
S1130710620F731F802F12DF0F5F1F4F6D2D70E06C
S11307206017710714F724C0A82EB12C850119C0D5
S1130730F801EA19FB092C2F30E04E2D50E0421B42
S1130740530BE49FC001E59F900DF49F900D11247D
S11307506A197B0909D7620F731F802FEFDE0150DE
S113076011096D2D70E00617170714F701C0E6DEB6
S1130770DF91CF911F910F91FF90EF90DF90BF9089
S1130780AF9008952F923F924F925F927F928F92F3
S11307909F92AF92BF92CF92DF92EF92FF920F930C
S11307A01F93CF93DF93082F762EA62EB12CE42E21
S11307B0F12CC701880F991F8E0D9F1D6C01992381
S11307C01CF423E0C20ED11CD594C794D594C794CD
S11307D0E501CC19DD0929C0EE9C1001EF9C300C19
S11307E0300C1124CE018A199B09889F9001899F9E
S11307F0300D300D1124221A330A032C000C440846
S11308005508C201B101CDD55CD620E030E040E00E
S11308105FE335D598D5162F6C2F802F810F8EDE90
S11308206C2F802F811B8ADE2196C5018C0D9D1DA6
S11308308C179D078CF610E0E801CC19DD0929C05E
S1130840EE9C4001EF9C900C900C1124CE01801B77
S1130850910B889F9001899F300D300D1124821ACD
S1130860930A092C000CAA08BB08C501B40199D548
S113087028D620E030E040E05FE301D564D5B62E11
S1130880672D6B0D8C2F5ADE672D6B198C2F56DE5E
S11308902196C601800F911F8C179D078CF6DF915E
S11308A0CF911F910F91FF90EF90DF90CF90BF9069
S11308B0AF909F908F907F905F904F903F902F903C
S11308C008959DEC899F912D112496959695969562
S11308D0990F292F220F220F920F891B982F31F481
S11308E0611104C080E2C7DD80E0089580E3890FD0
S11308F0C2DD81E00895EF92FF920F931F93CF938F
S1130900DF93AC019C01329522952F7023273F7011
S11309102327A7E4B3E03BD6EC01D695C795D6953B
S1130920C795D695C79520E137E2C29FC001C39F02
S1130930900DD29F900D1124EA01C81BD90B7E01A2
S1130940F694E794F694E794F694E7949701A5EC6B
S1130950B0E21DD68C01129502950F7001271F700D
S1130960012760E0802FADDF482F28EE33E0029F9F
S1130970C001039F900D129F900D1124C81BD90B29
S11309807E01F694E794F694E7949701ABE7B4E11B
S1130990FED58C0116950795642F802F92DF482F82
S11309A024E6209FC001219F900D1124C81BD90B60
S11309B09E01ADECBCECEBD58C0116950795169514
S11309C0079516950795642F802F7BDFC801880F44
S11309D0991F000F111F000F111F000F111F080F87
S11309E0191FCE01801B910B805D45DDDF91CF91F6
S11309F01F910F91FF90EF90089521E030E0062EB3
S1130A0002C0220F331F0A94E2F790E0822393235B
S1130A1002C0959587956A95E2F70895CF93DF9381
S1130A20803408F058C066230CF455C0D82FD695EE
S1130A30D695D695877071F0813071F0823071F05F
S1130A40833071F0843071F0853071F0863071F448
S1130A5080E40DC081E00BC082E009C084E007C0DF
S1130A6088E005C080E103C080E201C080E8452B36
S1130A7069F4809590E8D99FF0011124E058FB4F68
S1130A80E60FF11D9081892380830BC090E8D99FE4
S1130A90F0011124E058FB4FE60FF11D9081892BE2
S1130AA08083C62F8D2F3CDDC03458F480E8D89F56
S1130AB0F0011124E058FB4FEC0FF11D808150DC54
S1130AC00AC090E8D99FF0011124E058FB4FEC0FC5
S1130AD0F11D80815EDCDF91CF9108959F92AF92EA
S1130AE0BF92CF92DF92EF92FF920F931F93CF9317
S1130AF0DF937C01A62EB42E922EC0E0D0E0C12C50
S1130B001FC0209729F4C7010196F701D4907C01F6
S1130B1067E070E06C1B7D0B8D2D6FDFAC01612FE6
S1130B206B0D8C2D8A0D7ADF2196C830D10511F416
S1130B30C0E0D0E01F5F01C010E0101710F3C394B1
S1130B40C914D0F3DF91CF911F910F91FF90EF90D3
S1130B50DF90CF90BF90AF909F90089582D583701F
S1130B609078992324F401978C6F9F6F019680935A
S1130B707704089580E090E00CC09C012F5F3F4F04
S1130B80F901E451FC4F4081FC01E05AFC4F4083E1
S1130B90C9018B38910588F38CE8E0E6F3E0ACEE0C
S1130BA0B3E001900D928A95E1F78CE8E0E6F3E07A
S1130BB0DF011D928A95E9F70895809105019091CE
S1130BC00601009751F42FEB84ED91E02150804011
S1130BD09040E1F700C0000008958130910551F480
S1130BE02FE58AEE90E0215080409040E1F700C06C
S1130BF000000895029739F487EA91E60197F1F726
S1130C0000C00000089583ED90E30197F1F700C060
S1130C1000000895809103048330A1F028F481300A
S1130C2089F0823039F016C08530A0F0873050F05A
S1130C30873081F480915A03882321F183E08093E3
S1130C405F03089580915A038F3FE1F083E080931E
S1130C505F03089580915B0390915C038C32914013
S1130C6089F480915D0390915E03883522E09207B8
S1130C7049F422E020935F038C509E4F90935E03CF
S1130C8080935D03089587E083BF12BE81E087BF30
S1130C9008951BBA8FEF8ABB88BB87BB15BA90EF48
S1130CA094BB12BA11BA13B882B9109262001092AE
S1130CB06100089587E089BF8AE280936A008FB754
S1130CC080688FBF0895F894E4DFAEDBDCDFF2DFE9
S1130CD0789408951F920F920FB60F9211248F9358
S1130CE080915F03813011F0843019F483E08093A4
S1130CF05F038F910F900FBE0F901F90189542EED7
S1130D0052E060E080E0F0DB80915B0390915C0353
S1130D10F2DD46E253E06AE080E0E6DB80915D03C9
S1130D2090915E03E8DD48EE52E060E081E0DCCBC8
S1130D3008951F920F920FB60F9211240BB60F92C3
S1130D402F933F934F935F936F937F938F939F93CF
S1130D50AF93BF93EF93FF9380915F03813011F0C2
S1130D60843031F5809179048F5F809379048D32DA
S1130D70F9F480915B0390915C03019690935C037A
S1130D8080935B0380915D0390915E030296909340
S1130D905E0380935D03B3DF1092790480915B035B
S1130DA090915C038E35914019F484E080935F0345
S1130DB0FF91EF91BF91AF919F918F917F916F912F
S1130DC05F914F913F912F910F900BBE0F900FBEEB
S1130DD00F901F9018950FDB80915F03823081F490
S1130DE04DEF52E061E081E07FDB4CE053E064E0F2
S1130DF082E07ADB48EE52E060E083E075DB0AC013
S1130E0045E153E064E082E06FDB48EE52E060E0ED
S1130E1083E06ADB41E253E062E084E065DB8091D9
S1130E205D0390915E0367DD4DE253E064E087E08B
S1130E305BDB10925F0308950F9300E12BE1482FD1
S1130E4068E285E791E04ADE0F9108950F93CF930E
S1130E50DF9300D0CDB7DEB7198296E19A83E1E043
S1130E60F0E0EC0FFD1FE60FF11D908164E2691BB9
S1130E7008E128E1482F8BEA91E030DE0F900F90D3
S1130E80DF91CF910F9108950F9366E2681B08E1FB
S1130E902AE140E08BE192E021DE0F910895ABDA84
S1130EA04BE353E060E081E01FDB48EE52E060E09A
S1130EB082E01ADB4FE453E06AE083E015DB2BE7C2
S1130EC041E26EE381E2B0DB80E0DEDF86E4B4DFA2
S1130ED02CE84CE360E08CE3A7CB089510927904EE
S1130EE010925C0310925B0310925E0310925D03F8
S1130EF083E08093040110925A038CE8ECEEF3E053
S1130F00DF011D928A95E9F776DA7ADBF8DE80E074
S1130F10BBDF2CE84CE360E08CE386DB81E080936C
S1130F205F0308950F93CF93DF9300D01F92CDB743
S1130F30DEB79BE1998390E19A8396E29B83E1E09B
S1130F40F0E0EC0FFD1FE80FF11D08E22EE14AE589
S1130F5060818CE890E0C2DD0F900F900F90DF91DC
S1130F60CF910F9108950F931F93CF9300E120E247
S1130F7049E160E281E391E0B1DD00E010E0C8E224
S1130F800EC02C2F46E46C2F8EE14EDBCF5F83EF37
S1130F909EE70197F1F700C000000F5F1F4F003577
S1130FA011057CF3CF911F910F910895CF93DF9397
S1130FB000D01F92CDB7DEB79BE0998398E19A8366
S1130FC01B82E1E0F0E0EC0FFD1FE60FF11D9081C4
S1130FD045E0682F87E3891BD5DB0F900F900F90B6
S1130FE0DF91CF910895962F8330A9F028F48130B2
S1130FF051F0823061F008958630A1F08730B1F06D
S11310008530B9F40BC060E0892F20CF089561E0EA
S1131010892F1CCF0895862F0FCF089560E0892F64
S1131020C5CF089561E0892FC1CF089562E0892F6B
S1131030BDCF0895CF93DF93C82FDDD960DE2CE8B0
S11310404CE360E08CE3F0DA8C2F1EDFC0E0D0E0EC
S113105009C0FE01E451FC4F8081882311F0BE01D8
S1131060C2DF2196CC38D105A4F383EC99E0019733
S1131070F1F700C00000CEDDDF91CF91089523DEAB
S11310800EDF8799FECF2ADFC0E048C073DD809170
S11310905F03843061F0CC3240F060DDC695C695C4
S11310A08FE2C89FC12D1124C695CF5F13C080E085
S11310B039DFCC3270F0D5D263E070E055D28B5F6B
S11310C080937404C695C6958FE2C89FC12D1124E0
S11310D0C695CF5F80E0AEDF70DD80915B039091B9
S11310E05C038233910539F481E090E0909306012A
S11310F08093050113C08639910539F482E090E0AC
S1131100909306018093050109C08C32914031F41B
S113111083E090E0909306018093050180915F0342
S1131120813009F4B3CF843009F4B0CF54DEA9CFB1
S11311301F920F920FB60F9211240BB60F922F939A
S11311403F934F935F936F937F938F939F93AF934B
S1131150BF93CF93EF93FF9380915F03813011F09E
S11311608430F9F480915A03809580935A03C0E047
S113117005C000DD8C2F5EDF20DDCF5FC731C8F3F3
S113118087E158DF1ADDC6E105C0F4DC8C2F52DF9D
S113119014DDC150C111F9CF80915A038095809319
S11311A05A03FF91EF91CF91BF91AF919F918F918E
S11311B07F916F915F914F913F912F910F900BBE53
S11311C00F900FBE0F901F9018951F920F920FB69D
S11311D00F9211240BB60F922F933F934F935F936B
S11311E06F937F938F939F93AF93BF93EF93FF93EB
S11311F080915F03813011F0843069F580915D0343
S113120090915E038436910530F184569109909350
S11312105E0380935D0373DDA6DE8BE49DE101979D
S1131220F1F700C000008CE8ECEEF3E0DF011D9262
S11312308A95E9F7E0D880E0FDDE80915F03843091
S113124051F480910401815080930401811103C001
S113125082E080935F03FF91EF91BF91AF919F91E3
S11312608F917F916F915F914F913F912F910F904B
S11312700BBE0F900FBE0F901F9018955058BB27B0
S1131280AA270ED0E0C0D1D030F0D6D020F031F46F
S11312909F3F11F41EF4C6C00EF4E095E7FBBCC0FA
S11312A0E92FE2D080F3BA17620773078407950722
S11312B018F071F49EF5FAC00EF4E0950B2EBA2FD7
S11312C0A02D0B01B90190010C01CA01A001112448
S11312D0FF27591B99F0593F50F4503E68F11A16F4
S11312E0F040A22F232F342F4427585FF3CF469585
S11312F037952795A795F0405395C9F77EF41F16A7
S1131300BA0B620B730B840BBAF09150A1F0FF0F70
S1131310BB1F661F771F881FC2F70EC0BA0F621F5C
S1131320731F841F48F4879577956795B795F7954C
S11313309E3F08F0B3CF9395880F08F09927EE0FDE
S113134097958795089598D088F09F5790F0B92F76
S11313509927B751A0F0D1F0660F771F881F991F06
S11313601AF0BA95C9F712C0B13081F09FD0B1E03C
S113137008959CC0672F782F8827B85F39F0B93F4C
S1131380CCF3869577956795B395D9F73EF4909508
S11313908095709561957F4F8F4F9F4F0895E89486
S11313A009C097FB3EF490958095709561957F4FA9
S11313B08F4F9F4F9923A9F0F92F96E9BB27939557
S11313C0F695879577956795B795F111F8CFFAF467
S11313D0BB0F11F460FF1BC06F5F7F4F8F4F9F4F98
S11313E016C0882311F096E911C0772321F09EE8F6
S11313F0872F762F05C0662371F096E8862F70E05C
S113140060E02AF09A95660F771F881FDAF7880F35
S11314109695879597F9089597F99F6780E870E006
S113142060E008959FEF80EC089500240A94161656
S1131430170618060906089500240A9412161306BE
S1131440140605060895092E0394000C11F488234C
S113145052F0BB0F40F4BF2B11F460FF04C06F5F68
S11314607F4F8F4F9F4F089557FD9058440F551F3E
S113147059F05F3F71F04795880F97FB991F61F012
S11314809F3F79F087950895121613061406551F89
S1131490F2CF4695F1DF08C0161617061806991FF5
S11314A0F1CF86957105610508940895E894BB27EA
S11314B066277727CB0197F9089511F40EF4B2CF7C
S11314C03EC0DADFD0F39923D9F3CEF39F57550BFF
S11314D087FF43D00024A0E640EA90018058569547
S11314E0979528F4805C660F771F881F20F02617D5
S11314F03707480730F4621B730B840B202931290A
S11315004A2BA69517940794202531254A2758F786
S1131510660F771F881F20F026173707480730F417
S1131520620B730B840B200D311D411DA09581F7B7
S1131530B901842F9158880F9695879508959F3FF8
S113154031F0915020F4879577956795B795880F7A
S1131550911D9695879597F9089591505040660F7F
S1131560771F881FD2F7089597FB072E16F400946F
S113157006D077FD08D01AD007FC05D03EF490952C
S113158081959F4F0895709561957F4F0895A29F0F
S1131590B001B39FC001A39F700D811D1124911D43
S11315A0B29F700D811D1124911D0895AA1BBB1BB0
S11315B051E107C0AA1FBB1FA617B70710F0A61B4F
S11315C0B70B881F991F5A95A9F780959095BC0170
S11315D0CD0108958F929F92AF92BF92CF92DF92E6
S11315E0EF92FF92CF93DF93EC01688179818A8136
S11315F09B81611571058105910521F464E279ED02
S11316008BE597E02DE133EF41E050E038D049011C
S11316105A019B01AC01A7EAB1E44DD06B017C01F6
S1131620ACEEB4EFA501940152D0DC01CB018C0DDA
S11316309D1DAE1DBF1DB7FF03C00197A109B04892
S113164088839983AA83BB839F77DF91CF91FF908F
S1131650EF90DF90CF90BF90AF909F908F900895C0
S1131660B9CF80E091E0B6CFA0E0B0E08093000174
S113167090930101A0930201B09303010895052EF4
S113168097FB16F400940FD057FD05D024D007FC27
S113169002D046F408C050954095309521953F4FAF
S11316A04F4F5F4F089590958095709561957F4F4A
S11316B08F4F9F4F08956BDFA59F900DB49F900DA2
S11316C0A49F800D911D11240895B7FFF4CFF3DF7B
S11316D0821B930B0895A1E21A2EAA1BBB1BFD01CA
S11316E00DC0AA1FBB1FEE1FFF1FA217B307E407FD
S11316F0F50720F0A21BB30BE40BF50B661F771F55
S1131700881F991F1A9469F7609570958095909534
S11117109B01AC01BD01CF010895F894FFCFF9
S113171E01000000030200000000000000004F0062
S113172E000007000700147F147F14242A7F2A1256
S113173E2313086462364955225000050300000045
S113174E1C2241000041221C0014083E0814080803
S113175E3E080800503000000808080808006060C1
S113176E000020100804023E5149453E00427F40CD
S113177E0042615149462141454B311814127F10E4
S113178E27454545393C4A49493001710905033617
S113179E49494936064949291E0036360000005685
S11317AE36000008142241001414141414004122AB
S11317BE14080201510906324979413E7E11111174
S11317CE7E7F494949363E414141227F4141221C97
S11317DE7F494949417F090909013E4149497A7FB7
S11317EE0808087F00417F41002040413F017F08E7
S11317FE1422417F404040407F020C027F7F040848
S113180E107F3E4141413E7F090909063E41512167
S113181E5E7F09192946264949493201017F010192
S113182E3F4040403F1F2040201F3F4038403F6311
S113183E1408146307087008076151494543007F73
S113184E41410002040810200041417F00040201BE
S113185E020440404040400001020400205454540D
S113186E787F484444383844444420384444487FBC
S113187E3854545418087E0901020C5252523E7FB9
S113188E0804047800047D00002040443D007F10CD
S113189E28440000417F40007C0418047C7C08042A
S11318AE047838444444387C141414080814141866
S11318BE7C7C080404084854545420043F444020BB
S11318CE3C4040207C1C2040201C3C4030403C448A
S11318DE281028440C5050503C4464544C44000886
S11318EE3641000000770000004136080008040865
S11318FE100854696D653A003D3D3D3D3D3D3D3D0D
S113190E3D3D3D3D3D3D3D3D3D3D3D3D00436F6EC9
S113191E67726174756C6174696F6E00596F7520AE
S113192E57696E2100596F75206C6F73652E2E2EBC
S113193E00596F757220506F696E743A004E657758
S113194E2047616D653A205044370048656C6C6FD2
S113195E2C20547261766C65722044696E6F00504F
S10D196E72657373205044370000C3
S9030000FC
